{
  "contractName": "DTube",
  "abi": [
    {
      "inputs": [],
      "stateMutability": "nonpayable",
      "type": "constructor"
    },
    {
      "anonymous": false,
      "inputs": [
        {
          "indexed": false,
          "internalType": "uint256",
          "name": "id",
          "type": "uint256"
        },
        {
          "indexed": false,
          "internalType": "string",
          "name": "hash",
          "type": "string"
        },
        {
          "indexed": false,
          "internalType": "string",
          "name": "title",
          "type": "string"
        },
        {
          "indexed": false,
          "internalType": "address",
          "name": "author",
          "type": "address"
        }
      ],
      "name": "VideoUploaded",
      "type": "event"
    },
    {
      "inputs": [],
      "name": "name",
      "outputs": [
        {
          "internalType": "string",
          "name": "",
          "type": "string"
        }
      ],
      "stateMutability": "view",
      "type": "function",
      "constant": true
    },
    {
      "inputs": [],
      "name": "videoCount",
      "outputs": [
        {
          "internalType": "uint256",
          "name": "",
          "type": "uint256"
        }
      ],
      "stateMutability": "view",
      "type": "function",
      "constant": true
    },
    {
      "inputs": [
        {
          "internalType": "uint256",
          "name": "",
          "type": "uint256"
        }
      ],
      "name": "videos",
      "outputs": [
        {
          "internalType": "uint256",
          "name": "id",
          "type": "uint256"
        },
        {
          "internalType": "string",
          "name": "hash",
          "type": "string"
        },
        {
          "internalType": "string",
          "name": "title",
          "type": "string"
        },
        {
          "internalType": "address",
          "name": "author",
          "type": "address"
        }
      ],
      "stateMutability": "view",
      "type": "function",
      "constant": true
    },
    {
      "inputs": [
        {
          "internalType": "string",
          "name": "_videoHash",
          "type": "string"
        },
        {
          "internalType": "string",
          "name": "_title",
          "type": "string"
        }
      ],
      "name": "uploadVideo",
      "outputs": [],
      "stateMutability": "nonpayable",
      "type": "function"
    }
  ],
  "bytecode": "0x6080604052600080556040518060400160405280600581526020017f445475626500000000000000000000000000000000000000000000000000000081525060019080519060200190610053929190610066565b5034801561006057600080fd5b5061016a565b82805461007290610109565b90600052602060002090601f01602090048101928261009457600085556100db565b82601f106100ad57805160ff19168380011785556100db565b828001600101855582156100db579182015b828111156100da5782518255916020019190600101906100bf565b5b5090506100e891906100ec565b5090565b5b808211156101055760008160009055506001016100ed565b5090565b6000600282049050600182168061012157607f821691505b602082108114156101355761013461013b565b5b50919050565b7f4e487b7100000000000000000000000000000000000000000000000000000000600052602260045260246000fd5b610944806101796000396000f3fe608060405234801561001057600080fd5b506004361061004c5760003560e01c806306fdde03146100515780638a5447c51461006f578063c61b5f4c1461008b578063e6821bf5146100a9575b600080fd5b6100596100dc565b604051610066919061062d565b60405180910390f35b61008960048036038101906100849190610541565b61016a565b005b6100936102bb565b6040516100a0919061064f565b60405180910390f35b6100c360048036038101906100be91906105ad565b6102c1565b6040516100d3949392919061066a565b60405180910390f35b600180546100e9906107ad565b80601f0160208091040260200160405190810160405280929190818152602001828054610115906107ad565b80156101625780601f1061013757610100808354040283529160200191610162565b820191906000526020600020905b81548152906001019060200180831161014557829003601f168201915b505050505081565b600082511161017857600080fd5b600081511161018657600080fd5b60008081548092919061019890610810565b9190505550604051806080016040528060005481526020018381526020018281526020013373ffffffffffffffffffffffffffffffffffffffff168152506002600080548152602001908152602001600020600082015181600001556020820151816001019080519060200190610210929190610421565b50604082015181600201908051906020019061022d929190610421565b5060608201518160030160006101000a81548173ffffffffffffffffffffffffffffffffffffffff021916908373ffffffffffffffffffffffffffffffffffffffff1602179055509050507f2c44b862f4b4e08a26a765f9499900759a9ec95360a6f174d53163bd5d367f676000548383336040516102af949392919061066a565b60405180910390a15050565b60005481565b60026020528060005260406000206000915090508060000154908060010180546102ea906107ad565b80601f0160208091040260200160405190810160405280929190818152602001828054610316906107ad565b80156103635780601f1061033857610100808354040283529160200191610363565b820191906000526020600020905b81548152906001019060200180831161034657829003601f168201915b505050505090806002018054610378906107ad565b80601f01602080910402602001604051908101604052809291908181526020018280546103a4906107ad565b80156103f15780601f106103c6576101008083540402835291602001916103f1565b820191906000526020600020905b8154815290600101906020018083116103d457829003601f168201915b5050505050908060030160009054906101000a900473ffffffffffffffffffffffffffffffffffffffff16905084565b82805461042d906107ad565b90600052602060002090601f01602090048101928261044f5760008555610496565b82601f1061046857805160ff1916838001178555610496565b82800160010185558215610496579182015b8281111561049557825182559160200191906001019061047a565b5b5090506104a391906104a7565b5090565b5b808211156104c05760008160009055506001016104a8565b5090565b60006104d76104d2846106e2565b6106bd565b9050828152602081018484840111156104ef57600080fd5b6104fa84828561076b565b509392505050565b600082601f83011261051357600080fd5b81356105238482602086016104c4565b91505092915050565b60008135905061053b816108f7565b92915050565b6000806040838503121561055457600080fd5b600083013567ffffffffffffffff81111561056e57600080fd5b61057a85828601610502565b925050602083013567ffffffffffffffff81111561059757600080fd5b6105a385828601610502565b9150509250929050565b6000602082840312156105bf57600080fd5b60006105cd8482850161052c565b91505092915050565b6105df8161072f565b82525050565b60006105f082610713565b6105fa818561071e565b935061060a81856020860161077a565b610613816108e6565b840191505092915050565b61062781610761565b82525050565b6000602082019050818103600083015261064781846105e5565b905092915050565b6000602082019050610664600083018461061e565b92915050565b600060808201905061067f600083018761061e565b818103602083015261069181866105e5565b905081810360408301526106a581856105e5565b90506106b460608301846105d6565b95945050505050565b60006106c76106d8565b90506106d382826107df565b919050565b6000604051905090565b600067ffffffffffffffff8211156106fd576106fc6108b7565b5b610706826108e6565b9050602081019050919050565b600081519050919050565b600082825260208201905092915050565b600061073a82610741565b9050919050565b600073ffffffffffffffffffffffffffffffffffffffff82169050919050565b6000819050919050565b82818337600083830152505050565b60005b8381101561079857808201518184015260208101905061077d565b838111156107a7576000848401525b50505050565b600060028204905060018216806107c557607f821691505b602082108114156107d9576107d8610888565b5b50919050565b6107e8826108e6565b810181811067ffffffffffffffff82111715610807576108066108b7565b5b80604052505050565b600061081b82610761565b91507fffffffffffffffffffffffffffffffffffffffffffffffffffffffffffffffff82141561084e5761084d610859565b5b600182019050919050565b7f4e487b7100000000000000000000000000000000000000000000000000000000600052601160045260246000fd5b7f4e487b7100000000000000000000000000000000000000000000000000000000600052602260045260246000fd5b7f4e487b7100000000000000000000000000000000000000000000000000000000600052604160045260246000fd5b6000601f19601f8301169050919050565b61090081610761565b811461090b57600080fd5b5056fea2646970667358221220b3e017365b9d64e62e7d4db69210b8644dc3ab7ff6b9cf1982177220efd6a18564736f6c63430008020033",
  "immutableReferences": {},
  "source": "pragma solidity ^0.8.0;\n\ncontract DTube {\n  uint public videoCount = 0;\n  string public name = \"DTube\";\n  mapping(uint => Video) public videos;\n\n  struct Video {\n    uint id;\n    string hash;\n    string title;\n    address author;\n  }\n\n  event VideoUploaded(\n    uint id,\n    string hash,\n    string title,\n    address author\n  );\n\n  constructor() public {\n  }\n\n  function uploadVideo(string memory _videoHash, string memory _title) public {\n\n    //Make sure the video hash exists\n    require(bytes(_videoHash).length > 0);\n\n    //Make sure the title hash exists\n    require(bytes(_title).length > 0);\n\n    //Increment video ID \n    videoCount++;\n\n    //Add video to the contract\n    videos[videoCount] = Video(videoCount, _videoHash, _title, msg.sender);\n\n    //Trigger an event\n    emit VideoUploaded(videoCount, _videoHash, _title, msg.sender);\n  }\n}\n",
  "sourcePath": "/home/lucifer/Projects/small/tuts/dtube/src/contracts/DTube.sol",
  "compiler": {
    "name": "solc",
    "version": "0.8.2+commit.661d1103.Emscripten.clang"
  },
  "schemaVersion": "3.3.4",
  "updatedAt": "2021-03-12T15:49:45.355Z",
  "networkType": "ethereum",
  "devdoc": {
    "kind": "dev",
    "methods": {},
    "version": 1
  },
  "userdoc": {
    "kind": "user",
    "methods": {},
    "version": 1
  }
}